{
  "transactions": [
    {
      "hash": "0xab35f6d6447bad86940d7992f9ee4c41baed1439912a2c8709cd31aed13a4c99",
      "transactionType": "CALL",
      "contractName": null,
      "contractAddress": "0x779877a7b0d9e8603169ddbd7836e478b4624789",
      "function": "transferAndCall(address,uint256,bytes)",
      "arguments": [
        "0x9DdfaCa8183c41ad55329BdeeD9F6A8d53168B1B",
        "3000000000000000000",
        "0xb57d897820f448c6f0017c41719f7b58865781d1e2cbcf0ddaf5a4715b49320f"
      ],
      "transaction": {
        "from": "0xd063e95e3a234e6e42ca42450892ca6bcb2471f7",
        "to": "0x779877a7b0d9e8603169ddbd7836e478b4624789",
        "gas": "0x1c1ff",
        "value": "0x0",
        "input": "0x4000aea00000000000000000000000009ddfaca8183c41ad55329bdeed9f6a8d53168b1b00000000000000000000000000000000000000000000000029a2241af62c000000000000000000000000000000000000000000000000000000000000000000600000000000000000000000000000000000000000000000000000000000000020b57d897820f448c6f0017c41719f7b58865781d1e2cbcf0ddaf5a4715b49320f",
        "nonce": "0x1b",
        "chainId": "0xaa36a7"
      },
      "additionalContracts": [],
      "isFixedGasLimit": false
    }
  ],
  "receipts": [
    {
      "status": "0x1",
      "cumulativeGasUsed": "0xd2059d",
      "logs": [
        {
          "address": "0x779877a7b0d9e8603169ddbd7836e478b4624789",
          "topics": [
            "0xddf252ad1be2c89b69c2b068fc378daa952ba7f163c4a11628f55a4df523b3ef",
            "0x000000000000000000000000d063e95e3a234e6e42ca42450892ca6bcb2471f7",
            "0x0000000000000000000000009ddfaca8183c41ad55329bdeed9f6a8d53168b1b"
          ],
          "data": "0x00000000000000000000000000000000000000000000000029a2241af62c0000",
          "blockHash": "0xdb086b3168210e23ecad75729fd8ff3f990a3d0eb80b6bedd3c824a2ef9a477c",
          "blockNumber": "0x949349",
          "blockTimestamp": "0x692bf140",
          "transactionHash": "0xab35f6d6447bad86940d7992f9ee4c41baed1439912a2c8709cd31aed13a4c99",
          "transactionIndex": "0x56",
          "logIndex": "0xfc",
          "removed": false
        },
        {
          "address": "0x779877a7b0d9e8603169ddbd7836e478b4624789",
          "topics": [
            "0xe19260aff97b920c7df27010903aeb9c8d2be5d310a2c67824cf3f15396e4c16",
            "0x000000000000000000000000d063e95e3a234e6e42ca42450892ca6bcb2471f7",
            "0x0000000000000000000000009ddfaca8183c41ad55329bdeed9f6a8d53168b1b"
          ],
          "data": "0x00000000000000000000000000000000000000000000000029a2241af62c000000000000000000000000000000000000000000000000000000000000000000400000000000000000000000000000000000000000000000000000000000000020b57d897820f448c6f0017c41719f7b58865781d1e2cbcf0ddaf5a4715b49320f",
          "blockHash": "0xdb086b3168210e23ecad75729fd8ff3f990a3d0eb80b6bedd3c824a2ef9a477c",
          "blockNumber": "0x949349",
          "blockTimestamp": "0x692bf140",
          "transactionHash": "0xab35f6d6447bad86940d7992f9ee4c41baed1439912a2c8709cd31aed13a4c99",
          "transactionIndex": "0x56",
          "logIndex": "0xfd",
          "removed": false
        },
        {
          "address": "0x9ddfaca8183c41ad55329bdeed9f6a8d53168b1b",
          "topics": [
            "0x1ced9348ff549fceab2ac57cd3a9de38edaaab274b725ee82c23e8fc8c4eec7a",
            "0xb57d897820f448c6f0017c41719f7b58865781d1e2cbcf0ddaf5a4715b49320f"
          ],
          "data": "0x000000000000000000000000000000000000000000000000000000000000000000000000000000000000000000000000000000000000000029a2241af62c0000",
          "blockHash": "0xdb086b3168210e23ecad75729fd8ff3f990a3d0eb80b6bedd3c824a2ef9a477c",
          "blockNumber": "0x949349",
          "blockTimestamp": "0x692bf140",
          "transactionHash": "0xab35f6d6447bad86940d7992f9ee4c41baed1439912a2c8709cd31aed13a4c99",
          "transactionIndex": "0x56",
          "logIndex": "0xfe",
          "removed": false
        }
      ],
      "logsBloom": "0x00000004000000000000000200000000000000000020000000000000020040000000000000000000000020000000000000000000000000000000000000000000000000000000000000000088000000000000000000000000000020000020000008000000000000000000000000000000000000000000000000000010000040000000000000000000000000010000800000000020000000000000000000000000000000000000000000000000010000000000000000000000000004000000000000000002000000000010000000000000000000000000080100000000000000000010000000000000800000000000000000000000000000000000000000000000",
      "type": "0x2",
      "transactionHash": "0xab35f6d6447bad86940d7992f9ee4c41baed1439912a2c8709cd31aed13a4c99",
      "transactionIndex": "0x56",
      "blockHash": "0xdb086b3168210e23ecad75729fd8ff3f990a3d0eb80b6bedd3c824a2ef9a477c",
      "blockNumber": "0x949349",
      "gasUsed": "0x133b1",
      "effectiveGasPrice": "0xf4248",
      "from": "0xd063e95e3a234e6e42ca42450892ca6bcb2471f7",
      "to": "0x779877a7b0d9e8603169ddbd7836e478b4624789",
      "contractAddress": null
    }
  ],
  "libraries": [],
  "pending": [],
  "returns": {},
  "timestamp": 1764487488430,
  "chain": 11155111,
  "commit": null
}